1004056963000168255467677116  CONFECCOES BELO SONHO LTDA         Carapicuiba                   SP11992798172021030120210331331
11Avenida General Teixeira Lott     01230                      Centro         06317341Gabriel                     011992798174
5000000000000000Isento        20210315MG551  0202936107P000000001796000000000000000000000000000000000000000000000000000000000N
5400000000000000551  020293610700000107893374170270000000010000000000039900000000000000000000000000000000000000000000000000000
5400000000000000551  020293610700000207893374181306000000010000000000049900000000000000000000000000000000000000000000000000000
5400000000000000551  020293610700000307893374186936000000010000000000049900000000000000000000000000000000000000000000000000000
5400000000000000551  020293610700000407893374170256000000010000000000039900000000000000000000000000000000000000000000000000000
7520210301202103310789337417027094049000Almofada Mini Divertida M&amp;M                      UN    000000000000000000000000000
7520210301202103310789337418130694049000Almofada Divertida Alien Pelucia 40x40 AD0044        UN    000000000000000000000000000
7520210301202103310789337418693694049000Almofada Divertida Batata Palito - REF AD0100        UN    000000000000000000000000000
7520210301202103310789337417025694049000Almofada Mini Divertida Dolar                        UN    000000000000000000000000000
9004056963000168255467677116  5000000001540000000475000000049900000012                                                       1